S01700004763634170706C69636174696F6E332E7372656359
S11300000C9434000C9451000C9451000C94510045
S11300100C9451000C9451000C9451000C94510018
S11300200C9451000C9492000C9451000C945100C7
S11300300C9451000C9451000C9451000C945100F8
S11300400C9451000C9451000C9451000C945100E8
S11300500C9451000C9479000C9451000C945100B0
S11300600C9451000C94510011241FBECFEFD8E022
S1130070DEBFCDBF11E0A0E0B1E0E8EBF2E002C0EA
S113008005900D92A231B107D9F721E0A2E1B1E0C8
S113009001C01D92A531B207E1F70E94EC000C9457
S11300A05A010C940000F89484B1837F84B985B11B
S11300B08C6085B98FEF8AB987B18F6087B984B1B5
S11300C0836084B987E680937C00EAE7F0E08FE8F8
S11300D080838081806480831092B00082E080936A
S11300E0B10081E08093700086E98093B200789437
S11300F008951F920F920FB60F9211248F93EF93CE
S1130100FF938091790080931301EAE7F0E0808106
S113011080648083FF91EF918F910F900FBE0F90B9
S11301201F9018951F920F920FB60F9211245F9390
S11301306F937F938F939F93AF93BF93EF93FF93AB
S113014088B1817F88B980911201813091F018F0D3
S11301508230D9F026C095B1809114019C7F8370C0
S1130160892B85B9809114018BB988B1826088B9D3
S113017018C0E0911301EF70F0E0EE5FFE4F808154
S11301808BB988B1846088B90CC0E0911301E29501
S1130190EF70F0E0EE5FFE4F80818BB988B188602C
S11301A088B98091120190E0019663E070E00E94AA
S11301B032018093120186E98093B200FF91EF919E
S11301C0BF91AF919F918F917F916F915F910F90AC
S11301D00FBE0F901F9018950E9453001A9914C0D7
S11301E080910101882381F087E893E10197F1F779
S11301F000C000001A990DC0809114018F5F809394
S113020014011092010105C01A9B03C081E0809380
S113021001011B9914C080910001882381F087E8B3
S113022093E10197F1F700C000001B990DC0809184
S113023014018150809314011092000105C01B9B8E
S113024003C081E080930001909113018091140117
S1130250891720F488B1816088B9C0CF88B18E7FB6
S113026088B9BCCF97FB072E16F4009407D077FD0E
S113027009D00E94460107FC05D03EF49095819573
S11302809F4F0895709561957F4F0895AA1BBB1BDE
S113029051E107C0AA1FBB1FA617B70710F0A61B82
S11302A0B70B881F991F5A95A9F780959095BC01A3
S10B02B0CD010895F894FFCF7D
S11302B801013F065B4F666D7D077F6F777C395E72
S10502C8797146
S9030000FC
